:020000040800F2
:1000000000040020D9020008DB020008DB0200081F
:10001000DB020008DB020008DB020008DB0200084C
:10002000DB020008DB020008DB02000821430108B4
:10003000DB020008DB020008DB020008DB0200082C
:10004000DB020008DB020008DB020008DB0200081C
:10005000DB020008DB020008DB020008DB0200080C
:10006000DB020008DB020008DB020008C1BD00085B
:1000700021BE000881BE0008E1BE000841BF0008A3
:10008000A1BF000801C00008DB020008DB02000875
:10009000DB020008DB020008DB020008DB020008CC
:1000A000DB02000861E20008DB02000891E20008C0
:1000B00091E10008DB020008DB020008DB02000817
:1000C000DB020008DB020008DB020008DB0200089C
:1000D000DB020008DB02000841E90008DB0200083F
:1000E000DB020008DB020008DB020008DB0200087C
:1000F000DB020008DB020008DB02000861C0000828
:10010000DB020008DB020008DB020008DB0200085B
:10011000DB020008DB020008DB020008DB0200084B
:10012000C1C0000821C1000881C10008E1C1000868
:1001300041C20008DB020008DB020008DB02000805
:10014000DB020008DB020008DB02000841D20008E5
:10015000A1C2000801C3000861C30008DB02000857
:10016000DB020008DB020008DB020008DB020008FB
:10017000DB02000871D20008DB020008DB02000885
:10018000DB020008DB020008DB020008DB020008DB
:10019000DB020008DB020008DB020008DB020008CB
:1001A000DB020008DB020008DB020008DB020008BB
:1001B000DB020008DB020008DB020008DB020008AB
:1001C000DB020008DB020008DB020008DB0200089B
:1001D000DB020008DB020008DB020008DB0200088B
:0401E000018A000888
:1002000072B6274880F30888264880F30988264874
:100210004EF60851CEF200010860022080F31488E7
:10022000BFF36F8F08F0F4FB0EF07AFC4FF05530FF
:100230001E491B4A91423CBF41F8040BFAE71C4996
:10024000184A91423CBF41F8040BFAE719491A4A8F
:100250001A4B9A423EBF51F8040B42F8040BF8E7E0
:1002600000201749174A91423CBF41F8040BFAE7B6
:1002700008F0E6FB08F0D4FB134C144DAC4203DA53
:1002800054F8041B8847F9E708F082FA104C114D26
:10029000AC4203DA54F8041B8847F9E708F0C8BBFE
:1002A00000040020000800200000000800000020DA
:1002B00000040020A4900108000800205C0D00202C
:1002C000600D0020C8320020E0010008E4010008B1
:1002D000E4010008E401000892E700F000F8FEE7FE
:1002E0002DE9F04FC1F80CD0C3689D46BDE8F08FF2
:1002F0000EF0FEFF002383F311882846A04700205C
:1003000010F0A6F90EF0DCFF0FF06AFE0EF0F0FF21
:1003100000DFFEE7844641EA000313F003036DD1DA
:10032000403A41D351F8043B40F8043B51F8043BB8
:1003300040F8043B51F8043B40F8043B51F8043BBF
:1003400040F8043B51F8043B40F8043B51F8043BAF
:1003500040F8043B51F8043B40F8043B51F8043B9F
:1003600040F8043B51F8043B40F8043B51F8043B8F
:1003700040F8043B51F8043B40F8043B51F8043B7F
:1003800040F8043B51F8043B40F8043B51F8043B6F
:1003900040F8043B51F8043B40F8043B51F8043B5F
:1003A00040F8043B403ABDD2303211D351F8043BFF
:1003B00040F8043B51F8043B40F8043B51F8043B3F
:1003C00040F8043B51F8043B40F8043B103AEDD2AE
:1003D0000C3205D351F8043B40F8043B043AF9D2FF
:1003E000043208D0D2071CBF11F8013B00F8013BD2
:1003F00001D30B8803806046704700BF082A13D3DF
:100400008B078DD010F003038AD0C3F10403D21AF6
:10041000DB071CBF11F8013B00F8013B80D331F82A
:10042000023B20F8023B7BE7043AD9D3013A11F8AA
:10043000013B00F8013BF9D20B7803704B78437015
:100440008B78837060467047000000000000000059
:10045000000000000000000000000000000000009C
:10046000A2EB0300704700BF02780B78012A28BF77
:100470009A42F5D16DE9044540EA0104CDE90267ED
:100480006FF0000C4FEA447212B380EA010414F0DA
:10049000070F6AD100F0070420F0070004F00305FD
:1004A00021F007014FEAC505F0E8042314F0040F1A
:1004B000F1E804670CFA05F462EA040266EA04064D
:1004C0000AD063EA0403624667EA0407664603E06B
:1004D000F0E80423F1E8046782FA4CF582EA0604A6
:1004E000A4FA8CF46CBB83FA4CF583EA0705A5FAF1
:1004F0008CF595B950E9022351E9026782FA4CF56F
:1005000082EA0604A4FA8CF483FA4CF583EA070520
:10051000A5FA8CF52543DBD09CB92DBAB5FA85F444
:1005200024F0070427FA04F1DDE9026723FA04F353
:1005300003F0FF0001F0FF01FDE80445A0EB01001E
:10054000704724BAB4FA84F424F0070426FA04F1BC
:10055000DDE9026722FA04F202F0FF0001F0FF0178
:10056000FDE80445A0EB0100704714F0030F3CD1F7
:1005700010F0030428D150F8082B51F8083B82FAF8
:100580004CF582EA0305A5FA8CF55DB950F8042C08
:1005900051F8043C82FA4CF582EA0305A5FA8CF581
:1005A000002DE8D02DBAB5FA85F424F0070423FA1B
:1005B00004F122FA04F202F0FF0001F0FF01FDE86D
:1005C0000445A0EB010070474FEAC40420F003008B
:1005D00050F8082B21F0030151F8083B0CFA04F401
:1005E00062EA040263EA0403C9E710F003041AD0C4
:1005F000A1EB040120F00300E40750F8042B06D01F
:100600000FD28B785FFAA2F4E41A06D12BB1CB7823
:100610005FFAB2F4E41A00D11BB920465DF8104B22
:10062000704701F1040150F8042BCC0721F00301BD
:1006300051F8043B48D824D222F07F4482FA4CF58A
:1006400094EA1325A5FA8CF50AD165B951F8043B53
:1006500084EA0204B4EB036F0ED150F8042BEBE7ED
:100660004FEA132355E035F07F454DD10878FDE87A
:100670000445C0F1000070474FEA126203F0FF0327
:1006800047E002EA1C4482FA4CF594EA1345A5FAC5
:100690008CF50AD165B951F8043B84EA0204B4EB45
:1006A000034F0CD150F8042BEBE74FEA134330E033
:1006B00015EA1C4528D10B884FEA124229E04FEA7F
:1006C000124203EA1C4324E002F0FF0482FA4CF5D4
:1006D00094EA1365A5FA8CF50AD165B951F8043B83
:1006E00084EA0204B4EB032F09D150F8042BEBE7A2
:1006F0004FEA13630DE015F0FF0F05D10B684FEAC9
:10070000122223F07F4304E04FF00000FDE804458F
:10071000704712BA1BBA82FA4CF482EA0304A4FAB4
:100720008CF5B5FA85F402FA04F203FA04F34FEA01
:100730001260FDE80445A0EB1360704753B94AB955
:10074000002908BF00281CBF4FF0FF314FF0FF30D9
:1007500000F072B9ADF1080C6DE904CE00F006F8B6
:10076000DDF804E0DDE9022304B070472DE9F0472D
:10077000089E04468846002B4BD18A42154667D90D
:10078000B2FA82F24AB1C2F1200701FA02F320FA6A
:1007900007F7954047EA030894404FEA154E230CAB
:1007A000B8FBFEF71FFA85FC0EFB178843EA0843E7
:1007B00007FB0CF1994209D9EB1807F1FF3080F0E3
:1007C0001B81994240F21881023F2B445B1AA4B26C
:1007D000B3FBFEF00EFB103344EA034400FB0CFCB9
:1007E000A44509D92C1900F1FF3380F00781A445F5
:1007F00040F2048102382C4440EA0740A4EB0C0488
:1008000000271EB1D4400023C6E900433946BDE8A5
:10081000F0878B4209D9002E00F0EB800027C6E953
:10082000000138463946BDE8F087B3FA83F7002F58
:1008300047D18B4202D3824200F2FA80841A61EBE4
:10084000030301209846002EE0D0C6E90048DDE70A
:1008500002B9FFDEB2FA82F2002A40F08F80491B13
:100860004FEA154E1FFA85F80127B1FBFEFC230C59
:100870000EFB1C1143EA014308FB0CF1994207D916
:10088000EB180CF1FF3002D2994200F2CD80844681
:10089000591AA3B2B1FBFEF00EFB101443EA044454
:1008A00008FB00F8A04507D92C1900F1FF3302D24C
:1008B000A04500F2B6801846A4EB080440EA0C40BC
:1008C0009FE7C7F1200CBB4022FA0CFE4EEA030E54
:1008D00001FA07F420FA0CF521FA0CF34FEA1E484E
:1008E0002543B3FBF8F92C0C08FB19331FFA8EFAD9
:1008F00044EA034309FB0AF49C4202FA07F200FAB5
:1009000007F10BD91EEB030309F1FF3080F087805C
:100910009C4240F28480A9F1020973441B1BADB2D2
:10092000B3FBF8F008FB103345EA034400FB0AFA76
:10093000A24508D91EEB040400F1FF336BD2A24597
:1009400069D90238744440EA0940A0FB0289A4EB4B
:100950000A044C45C2464B4654D351D0002E69D0B0
:10096000B1EB0A0564EB030404FA0CFCFD40FC4007
:100970004CEA0505C6E90054002747E7C2F1200309
:1009800020FA03F7954001FA02F021FA03F34FEA47
:10099000154E3843010CB3FBFEF71FFA85F80EFB2A
:1009A000173341EA034107FB08F38B4204FA02F4D0
:1009B00007D9691807F1FF3C2FD28B422DD9023F8E
:1009C0002944CB1A81B2B3FBFEF00EFB103341EA8F
:1009D000034100FB08F38B4207D9691800F1FF3C83
:1009E00017D28B4215D902382944C91A40EA074761
:1009F0003BE73746304609E70746E7E61846FBE699
:100A00004145ABD2B8EB020A69EB0E02013813463E
:100A1000A4E76046E9E7184695E76746D1E78146CF
:100A20007CE702382C4447E7ACF1020C2B442FE75B
:100A3000384608E73746E9E6704700BF0000000087
:100A400000B585B0019000916F4A019B13606F481B
:100A500014F0DEFD009B1B68002B08D06C4814F0DE
:100A6000B7FD009B1B68184614F0D2FD02E06948F0
:100A700014F0CEFD684814F0CBFD684814F0A8FDD2
:100A8000674814F0C5FD674814F0A2FD664814F0ED
:100A9000BFFD664814F09CFD654814F0B9FD5B4845
:100AA00014F0B6FD634B00221A700023039388E014
:100AB00014F0A6FC604814F08BFD039B013318462C
:100AC00014F03EFD5D4814F083FD009B5A68039BC3
:100AD0009B0013441B681B68184614F079FD5848A6
:100AE00014F096FD002302935BE014F061FC55487E
:100AF00014F06EFD039B0133184614F021FD52489B
:100B000014F066FD029B0133184614F019FD4B48A2
:100B100014F05EFD009B5A68039B9B0013441B6806
:100B20005A68029B9B0013441B681B68184614F00C
:100B30004FFD434814F06CFD4FF4FA6014F0E0FBF5
:100B4000009B5A68039B9B0013441B685A68029BD6
:100B50009B0013441B68184614F00AFC3B4B1B789F
:100B6000002B18D03A4814F033FD3A4B1B68184656
:100B700014F0E6FC384814F02BFD14F0D9FB37488C
:100B800014F026FD364B1B68184614F021FD35483D
:100B900014F03EFD02E0344814F03AFD029B0133AC
:100BA0000293009B5A68039B9B0013441B685A687E
:100BB000029B9B0013441B68002B96D1039B0133BF
:100BC0000393009B5A68039B9B0013441B68002BF4
:100BD0007FF46EAF14F0ECFB0C4814F019FD2348C1
:100BE00014F0F6FC134B1B78002B03D0204814F0B4
:100BF0000FFD02E01F4814F00BFD0E4B1B7818464A
:100C000005B05DF804FB00BFA8190020948D010811
:100C1000DC710108E4710108F4710108F871010840
:100C20000C7201082472010838720108647201080C
:100C3000787201088C190020A0720108B4720108B2
:100C4000B8720108BC720108CC7201088D1900202D
:100C5000D072010888190020E8720108EC720108BE
:100C600090190020F0720108F4720108087301085D
:100C70001873010800730108000000000000000064
:100C800082B020230193019B83F3118802B0704747
:100C900082B000230193019B83F3118802B0704757
:100CA0004FF080435B6A1846704700BF00000000A9
:100CB00008B5FFF7F5FF0346184608BD0000000021
:100CC00008B5FFF7DDFF0EF0FBFA08BD00000000DD
:100CD00008B50EF00DFB094B1B68084A93420AD079
:100CE000064B9B699A68054B1B689B689A4202D227
:100CF00003480EF075F9FFF7CBFF08BD90100020F8
:100D000074730108000000000000000000000000F3
:100D100008B5FFF7CDFF0346184608BD00000000E8
:100D200000B583B0FFF7CCFFFFF7F2FF0190FFF7AC
:100D3000CFFF019B184603B05DF804FB00000000E4
:100D400000B583B0002301930FE00B4A019B52F8DA
:100D50002330002B06D0084A019B52F82330184656
:100D60000FF03EFD019B01330193019B042BECD955
:100D700003B05DF804FB00BF182000200000000055
:100D800000B583B00023019314E00D4A019B52F893
:100D90002330002B0BD00A4A019B52F8233018460F
:100DA0000FF0A6FC064A019B002142F82310019B8C
:100DB00001330193019B042BE7D903B05DF804FBD9
:100DC00018200020000000000000000000000000CB
:100DD00008B501200FF01CFDFFF7A2FF03461846DF
:100DE00008BD00BF0000000000000000000000007F
:100DF00008B51B4B01221A601A4814F0E9FB1A4887
:100E000014F006FC194814F0E3FB194814F000FC38
:100E1000184814F0DDFB184814F0FAFB174814F0DA
:100E2000D7FB174814F0F4FB164814F0D1FB04204C
:100E300014F086FB144814F0EBFB144814F0C8FBC4
:100E4000082014F07DFB104814F0E2FB104814F069
:100E5000BFFB082014F074FB0B4814F0D9FB08BD4D
:100E60008819002080730108AC730108B873010869
:100E7000E4730108F07301081C740108647401082C
:100E800090740108A8740108948D0108D4740108B5
:100E900000750108000000000000000000000000D4
:100EA00008B5184B01221A60174814F0B1FB174817
:100EB00014F08EFB012014F043FB154814F0A8FB3E
:100EC000144814F085FB144814F0A2FB134814F0E6
:100ED0007FFB062014F034FB0D4814F099FB1048FA
:100EE00014F076FB002014F02BFB094814F090FB63
:100EF0000C4814F06DFB012014F022FB044814F0A0
:100F000087FB08BD881900203C7501087075010831
:100F1000948D01089C750108C8750108D0750108F9
:100F2000FC750108287601080000000000000000A0
:100F300008B5C84B01221A60C74814F049FB2020AD
:100F400014F0FEFAC54814F063FBC54814F040FBEA
:100F500042F2107014F0F4FAC04814F059FBC14882
:100F600014F036FB202014F0EBFABC4814F050FBD0
:100F7000BD4814F02DFB202014F0E2FAB74814F01D
:100F800047FBBA4814F024FB022014F0D9FAB34806
:100F900014F03EFBB64814F01BFB002014F0D0FA0E
:100FA000AE4814F035FBB34814F012FB002014F0E7
:100FB000C7FAAA4814F02CFBAF4814F009FB002034
:100FC00014F0BEFAA54814F023FBAC4814F000FB63
:100FD000012014F0B5FAA14814F01AFBA84814F047
:100FE000F7FA012014F0ACFA9C4814F011FBA54864
:100FF00014F0EEFA012014F0A3FA984814F008FB5C
:10100000A14814F0E5FA012014F09AFA934814F07C
:10101000FFFA9E4814F0DCFA012014F091FA8F4890
:1010200014F0F6FA9A4814F0D3FA002014F088FA73
:101030008A4814F0EDFA974814F0CAFA012014F027
:101040007FFA864814F0E4FA934814F0C1FA0020BD
:1010500014F076FA814814F0DBFA904814F0B8FAEC
:10106000012014F06DFA7D4814F0D2FA8C4814F087
:10107000AFFA012014F064FA784814F0C9FA8948EC
:1010800014F0A6FA012014F05BFA744814F0C0FAC8
:10109000854814F09DFA012014F052FA6F4814F0BC
:1010A000B7FA824814F094FA012014F049FA6B4818
:1010B00014F0AEFA7E4814F08BFA002014F040FAD7
:1010C000664814F0A5FA7B4814F082FA012014F067
:1010D00037FA624814F09CFA774814F079FA012044
:1010E00014F02EFA5D4814F093FA744814F070FA74
:1010F000012014F025FA594814F08AFA704814F0C7
:1011000067FA012014F01CFA544814F081FA6D4873
:1011100014F05EFA012014F013FA504814F078FA33
:10112000694814F055FA012014F00AFA4B4814F0FB
:101130006FFA664814F04CFA012014F001FA47489F
:1011400014F066FA624814F043FA082014F0F8F933
:10115000424814F05DFA5F4814F03AFA012014F0A6
:10116000EFF93E4814F054FA5B4814F031FA0120CC
:1011700014F0E6F9394814F04BFA584814F028FAFC
:10118000012014F0DDF9354814F042FA544814F007
:101190001FFA012014F0D4F9304814F039FA5148FC
:1011A00014F016FA012014F0CBF92C4814F030FAA0
:1011B0004D4814F00DFA002014F0C2F9274814F03D
:1011C00027FA4A4814F004FA012014F0B9F9234828
:1011D00014F01EFA464814F0FBF9012014F0B0F99F
:1011E0001E4814F015FA434814F0F2F9012014F0E7
:1011F000A7F91A4814F00CFA3F4814F0E9F90F2047
:1012000014F09EF9154814F003FA3C4814F0E0F984
:10121000802014F095F9114814F0FAF9384814F0C8
:10122000D7F9012014F08CF90C4814F0F1F9354885
:1012300014F0CEF9012014F083F9084814F0E8F90D
:10124000314814F0C5F9002014F07AF9034814F07D
:10125000DFF908BD8819002064760108948D010823
:1012600090760108BC760108E87601081477010839
:10127000407701086C77010898770108C477010866
:10128000F07701081C780108487801087478010893
:10129000A0780108CC780108F878010824790108C1
:1012A000507901087C790108A8790108D4790108EE
:1012B000007A01082C7A0108587A0108847A01081A
:1012C000B07A0108DC7A0108087B0108347B010848
:1012D000607B01088C7B0108B87B0108E47B010876
:1012E000107C01083C7C0108687C0108947C0108A2
:1012F000C07C0108EC7C0108187D0108447D0108D0
:10130000707D01089C7D0108C87D01080000000077
:1013100082B0EFF311830093009B0193019B184669
:1013200002B0704700000000000000000000000054
:1013300082B00190019B002B0CBF01230023DBB284
:10134000184602B0704700BF000000000000000017
:1013500082B020230193019B83F3118802B0704770
:1013600082B000230193019B83F3118802B0704780
:1013700008B5FFF7EDFF08BD000000000000000009
:1013800008B5FFF7EDFF08BD0000000000000000F9
:1013900072B670470000000000000000000000006E
:1013A00082B020230193019B83F3118862B602B0BF
:1013B000704700BF000000000000000000000000B7
:1013C00082B000230193019B83F3118862B602B0BF
:1013D000704700BF00000000000000000000000097
:1013E0004FF080435B6A1846704700BF0000000062
:1013F00008B5FFF7F5FF0346184608BD00000000DA
:1014000008B5FFF7C5FF0DF013FF08BD0000000091
:1014100008B5FFF7C5FF0DF023FF08BD0000000071
:1014200008B50DF035FFFFF7CBFF08BD0000000049
:1014300008B5FFF78DFF0DF043FF08BD0000000069
:1014400008B50DF055FF094B1B68084A93420AD0B6
:10145000064B9B699A68054B1B689B689A4202D2AF
:1014600003480DF0BDFDFFF77BFF08BD9010002085
:10147000FC7E0108000000000000000000000000E9
:1014800008B5FFF775FF0DF04BFF08BD0000000029
:1014900008B50DF05DFFFFF773FF08BD0000000009
:1014A00008B5FFF735FF03461846FFF741FF03462F
:1014B000002B01D0FFF7BCFF08BD00BF00000000FB
:1014C00008B5FFF725FF03461846FFF731FF03462F
:1014D00083F00103DBB2002B01D0FFF7B1FF08BDA1
:1014E00082B00190019B0022DA6002B0704700BF19
:1014F00008B5FFF77DFF0346184608BD0000000051
:1015000000B583B001900DF07BFF019BDB68002BE1
:1015100014BF01230023DBB2184603B05DF804FBBF
:1015200000B585B00190FFF783FF0198FFF7E8FF52
:1015300003468DF80F30FFF783FF9DF80F301846F4
:1015400005B05DF804FB00BF0000000000000000D3
:1015500000B583B001900198FFF7D2FF0346002B3E
:1015600002D001980EF0DCF903B05DF804FB00BF77
:1015700000B585B003900291019200930398FFF7A4
:10158000E7FF009B019A029903980EF019F905B044
:101590005DF804FB000000000000000000000000F7
:1015A00000B585B00390029101920093FFF740FFD0
:1015B000009B019A02990398FFF7DAFFFFF740FFBB
:1015C00005B05DF804FB00BF000000000000000053
:1015D00000B585B00190FFF753FFFFF759FFFFF704
:1015E0004FFF0DF09DFD039003980DF0B9FDFFF73F
:1015F0004FFF05B05DF804FB000000000000000094
:1016000000B583B0414B01221A60FFF711FF0120A2
:101610000DF0F6FC03468DF80730FFF711FF9DF83B
:101620000730002B14BF01230023DBB283F001033A
:10163000DBB203F00103DBB23549184613F020FF9B
:101640000346002B5FD1314B02221A60FFF7F0FEF8
:1016500002200DF0D5FC03468DF80730FFF7F0FEB1
:101660009DF80730002B14BF01230023DBB283F069
:101670000103DBB203F00103DBB22649184613F085
:10168000FFFE0346002B3ED1204B03221A60FFF7DA
:10169000CFFE04200DF0B4FC03468DF80730FFF7B1
:1016A000CFFE9DF80730002B14BF01230023DBB2CF
:1016B00083F00103DBB203F00103DBB216491846E5
:1016C00013F0DEFE0346002B1DD1104B04221A60DE
:1016D000FFF7AEFE08200DF093FC03468DF80730AF
:1016E000FFF7AEFE9DF80730002B14BF0123002347
:1016F000DBB283F00103DBB203F00103DBB2074985
:10170000184613F0BDFE03B05DF804FB88190020F5
:101710001C7E0108347E0108587E0108747E010891
:1017200000B587B0284B01221A600DF0F9FC059036
:1017300005980DF015FD244B02221A60FFF778FE84
:101740000DF0EEFC059005980DF00AFDFFF778FE10
:101750001D4B03221A60FFF7A3FEFFF7A1FEFFF760
:101760006FFE194B04221A60FFF762FEFFF7A8FE16
:10177000FFF7A6FE144B05221A606B461846FFF7CA
:10178000AFFE68460023114A0121FFF709FF0A2036
:101790000FF03EF86B461846FFF7C2FE0346002BDB
:1017A00014BF01230023DBB283F00103DBB203F09B
:1017B0000103DBB20649184613F062FE0346002B14
:1017C00007B05DF804FB00BF88190020D1150008A0
:1017D0009C7E0108000000000000000000000000E6
:1017E00008B5064B01221A60FFF712FEFFF708FE4C
:1017F000FFF70EFEFFF714FE08BD00BF881900209A
:1018000000B583B0074B01221A60FFF771FE01900B
:10181000FFF76EFE0246019B9342F9D003B05DF8DC
:1018200004FB00BF88190020000000000000000039
:1018300082B001900091019A009B1344184602B0B7
:10184000704700BF00000000000000000000000022
:1018500082B020230193019B83F3118802B070476B
:1018600082B000230193019B83F3118802B070477B
:101870004FF080435B6A1846704700BF00000000CD
:1018800008B5FFF7F5FF0346184608BD0000000045
:1018900008B5FFF7DDFF0DF013FD08BD00000000E7
:1018A00008B50DF025FD094B1B68084A93420AD084
:1018B000064B9B699A68054B1B689B689A4202D24B
:1018C00003480DF08DFBFFF7CBFF08BD9010002003
:1018D0002880010800000000000000000000000057
:1018E00008B5FFF7CDFF0346184608BD000000000D
:1018F000014B9B69184670479010002000000000C3
:1019000008B5FFF7F5FF03469B68184608BD00BF02
:1019100000B583B00190019B1B78184613F090FE30
:1019200003B05DF804FB00BF0000000000000000F1
:1019300010B582B0494B01221A60FFF7D1FF019028
:1019400064200EF065FF64210198FFF771FF0446E3
:1019500067210198FFF76CFF0346414A194620466C
:1019600013F0D6FD0346002B76D13C4B02221A60C1
:10197000FFF7B6FF01904FF47A700EF049FF4FF475
:101980007A710198FFF754FF044640F2EB31019859
:10199000FFF74EFF0346324A1946204613F0B8FDC2
:1019A0000346002B58D12D4B03221A60FFF798FFF6
:1019B00001904FF47A700EF02BFF4FF47A7101987A
:1019C000FFF736FF044640F2EB310198FFF730FF96
:1019D0000346234A1946204613F09AFD0346002B7E
:1019E0003AD11E4B04221A60FFF77AFF019042F2AF
:1019F00010700EF00DFF42F210710198FFF718FF02
:101A0000044642F213710198FFF712FF0346144A8D
:101A10001946204613F07CFD0346002B1CD10F4BCA
:101A200005221A60FFF75CFF019064210198FFF71F
:101A3000FFFE034618460EF0FBFE64210198FFF7F7
:101A4000F7FE044667210198FFF7F2FE0346044AB9
:101A50001946204613F05CFD02B010BD8819002025
:101A6000087F0108000000000000000000000000E6
:101A700010B582B0914B01221A60914B1C68FFF7A0
:101A80003FFF03465A1F8F4B00938F4B4FF4A471B7
:101A900020460EF025FD02468C4B1A60884B5C6890
:101AA000FFF72EFF03461A1F894B0093864B4FF416
:101AB000A47120460EF014FD0246844B5A60804B00
:101AC0009C68FFF71DFF0346DA1E824B00937E4B96
:101AD0004FF4A47120460EF003FD02467B4B9A6042
:101AE000774BDC68FFF70CFF03469A1E7A4B009396
:101AF000754B4FF4A47120460EF0F2FC0246734B76
:101B0000DA606F4B1C69FFF7FBFE03465A1E734BEE
:101B100000936D4B4FF4A47120460EF0E1FC024699
:101B20006A4B1A61FFF72CF96D496E4813F0C0FC3F
:101B30000346002B40F0BF80604B02221A60604BCE
:101B40001C69FFF7DDFE03465A1E644B00935E4B93
:101B50004FF4A47120460EF0C3FC02465B4B1A61A1
:101B6000574BDC68FFF7CCFE03469A1E5A4B009396
:101B7000554B4FF4A47120460EF0B2FC0246534B75
:101B8000DA604F4B9C68FFF7BBFE0346DA1E514BF1
:101B900000934D4B4FF4A47120460EF0A1FC024679
:101BA0004A4B9A60464B5C68FFF7AAFE03461A1F31
:101BB000474B0093444B4FF4A47120460EF090FC29
:101BC0000246424B5A603E4B1C68FFF799FE0346A3
:101BD0005A1F3C4B00933C4B4FF4A47120460EF02F
:101BE0007FFC0246394B1A60FFF7CAF83C493D4872
:101BF00013F05EFC0346002B5DD1304B03221A60CC
:101C00002F4B5C68FFF77CFE03461A1F304B009396
:101C10002D4B4FF4A47120460EF062FC02462B4B74
:101C20005A60274B1C68FFF76BFE03465A1F254B73
:101C30000093254B4FF4A47120460EF051FC024650
:101C4000224B1A601E4B1C69FFF75AFE03465A1EB0
:101C5000224B00931C4B4FF4A47120460EF040FC25
:101C600002461A4B1A61164BDC68FFF749FE034621
:101C70009A1E194B0093144B4FF4A47120460EF09A
:101C80002FFC0246114BDA600D4B9C68FFF738FEC3
:101C90000346DA1E0F4B00930B4B4FF4A471204602
:101CA0000EF01EFC0246094B9A60FFF769F80C49DA
:101CB0000C4813F0FDFB02B010BD00BF88190020D6
:101CC00060730108507F01081119000818200020D6
:101CD0002C6201082C7F0108307F0108347F010845
:101CE000387F01084C7F0108000000000000000060
:101CF00000B583B0284B01221A60FFF701FE019066
:101D0000019B013318460EF033FD0090009A019BB1
:101D10009A420CBF01230023DBB22049184613F07E
:101D2000AFFB0346002B33D1FFF7EAFD0246019BD0
:101D300001339A420CBF01230023DBB21849184635
:101D400013F09EFB0346002B22D1134B02221A6094
:101D500000980EF00DFD0090019B0133009A9A420D
:101D60000CBF01230023DBB20C49184613F088FB9B
:101D70000346002B0CD1FFF7C3FD0246019B9342A3
:101D80000CBF01230023DBB20549184613F078FB92
:101D900003B05DF804FB00BF88190020647F0108D0
:101DA000887F010800000000000000000000000023
:101DB00000B583B0544B01221A60FFF7A1FD0190DA
:101DC000FFF796FD03469A6802329A60FFF798FD86
:101DD0000246019B02339A420CBF01230023DBB26F
:101DE0004A49184613F04CFB0346002B40F088800C
:101DF000454B02221A60019B013318460EF0B8FCD5
:101E00000090009A019B9A420CBF01230023DBB291
:101E10003F49184613F034FB0346002B70D1FFF7FF
:101E200067FD03469A68019B02339A420CBF012367
:101E30000023DBB23549184613F022FB0346002B82
:101E40005ED1FFF755FD0346DA6B019B01339A42E1
:101E50000CBF01230023DBB22E49184613F010FB00
:101E60000346002B4CD1284B03221A60019B0333FD
:101E700018460EF07DFC0090019B0133009A9A42B7
:101E80000CBF01230023DBB22149184613F0F8FAF6
:101E90000346002B34D1FFF72BFD03469A68019BC4
:101EA00003339A420CBF01230023DBB217491846C3
:101EB00013F0E6FA0346002B22D1FFF719FD034683
:101EC000DA6B019B03339A420CBF01230023DBB280
:101ED0001149184613F0D4FA0346002B10D10A4BCF
:101EE00004221A60FFF7D4FCFFF702FD0246019BB3
:101EF0009360FFF7FDFC0246019BD363FFF7D0FC24
:101F000003B05DF804FB00BF88190020887F01083A
:101F1000647F0108B47F0108DC7F01080000000035
:101F200082B001900091019A009B1344184602B0C0
:101F3000704700BF0000000000000000000000002B
:101F400082B020230193019B83F3118802B0704774
:101F500082B000230193019B83F3118802B0704784
:101F60004FF080435B6A1846704700BF00000000D6
:101F700008B5FFF7F5FF0346184608BD000000004E
:101F800008B5FFF7DDFF0DF09BF908BD000000006C
:101F900008B50DF0ADF9094B1B68084A93420AD009
:101FA000064B9B699A68054B1B689B689A4202D254
:101FB00003480DF015F8FFF7CBFF08BD9010002087
:101FC0007880010800000000000000000000000010
:101FD00008B5FFF7CDFF0346184608BD0000000016
:101FE000014B9B69184670479010002000000000CC
:101FF00008B5FFF7F5FF03469B68184608BD00BF0C
:1020000000B583B00190FFF7BBFF002107480EF039
:1020100057FC0DF04DFFFFF7BBFF019B1B781846E7
:1020200013F00EFB03B05DF804FB00BF2C20002072
:10203000014B00221A6070472C2000200000000095
:1020400010B584B03C4B01221A603C4B1C68FFF772
:10205000CFFF03465A1E3A4B00933A4B4FF4A471FC
:1020600020460EF03DFA0246374B1A60FFF788FF14
:102070004FF0FF3135480EF0FBFB0390FFF788FF70
:10208000324B1B68002B0CBF01230023DBB230490D
:10209000184613F0F5F90346002B4BD1039B002B98
:1020A0000CBF01230023DBB22A49184613F0E8F9DC
:1020B0000346002B3ED1FEF763FE1F4B02221A603F
:1020C000FFF75EFFFFF784FF029042F210711F4896
:1020D0000EF0CEFB0390FFF75BFF42F21071029807
:1020E000FFF71EFF044642F213710298FFF718FF34
:1020F0000346194A1946204613F00AFA0346002BF4
:1021000018D1124B1B68002B0CBF01230023DBB23C
:102110000F49184613F0B4F90346002B0AD1039B6C
:10212000B3F1FF3F0CBF01230023DBB2094918467E
:1021300013F0A6F904B010BD8819002060730108DF
:10214000347F010801200008182000202C200020E6
:102150003480010840800108087F01080000000069
:1021600082B001900091019A009B1344184602B07E
:10217000704700BF000000000000000000000000E9
:1021800082B020230193019B83F3118802B0704732
:1021900082B000230193019B83F3118802B0704742
:1021A00082B00190019B1B68019A9A420CBF0123E7
:1021B0000023DBB2184602B0704700BF00000000E9
:1021C00008B5FFF7DDFF0DF07BF808BD000000004B
:1021D00008B50DF08DF8094B1B68084A93420AD0E8
:1021E000064B9B699A68054B1B689B689A4202D212
:1021F00003480CF0F5FEFFF7CBFF08BD9010002060
:10220000A88101080000000000000000000000009C
:10221000014B9B6918467047901000200000000099
:1022200008B5FFF7F5FF03469B68184608BD00BFD9
:1022300000B583B001900DF0E3F8019B9B68184650
:1022400003B05DF804FB00BF0000000000000000C8
:1022500000B583B001900B468DF80330019A9DF8CC
:10226000033083F00103DBB2194610460EF0D8FDAF
:1022700003B05DF804FB00BF000000000000000098
:1022800000B583B00190019B18460EF051FE034645
:10229000184603B05DF804FB0000000000000000D9
:1022A00000B583B001900B468DF80330019A9DF87C
:1022B000033083F00103DBB2194610460EF0D0FD67
:1022C00003B05DF804FB00BF000000000000000048
:1022D00000B583B001900DF093F8019B9B68002B33
:1022E00003DC019B18460EF043FF03B05DF804FBCE
:1022F00000B583B00190FFF763FF0198FFF7E8FF97
:102300000DF0D6FDFFF764FF03B05DF804FB00BFDE
:1023100000B583B001900DF073F8019B9B68002B12
:10232000D4BF01230023DBB2184603B05DF804FBE1
:1023300008B5FFF745FF08BD0000000000000000E1
:1023400008B5FFF745FF08BD0000000000000000D1
:1023500000B583B0019005480EF0EAFD019B1B78A3
:10236000184613F06DF903B05DF804FB302000202F
:1023700000B583B001904FF4FA700EF049FAFFF700
:102380001FFF05480EF0F4FE0DF092FDFFF720FF51
:1023900003B05DF804FB00BF302000200000000007
:1023A00000B583B0019004480EF0C2FD02480EF063
:1023B00097FE03B05DF804FB302000200000000011
:1023C00000B583B001900198FFF792FF03B05DF86C
:1023D00004FB00BF0000000000000000000000003F
:1023E00008B5012101480EF01BFD08BD302000207A
:1023F00008B5002101480EF033FD08BD3020002053
:1024000000B583B0344B01221A6034480EF090FDC1
:102410000190FFF78DFF3148FFF70AFF0346002BBD
:102420000CBF01230023DBB22D49184613F028F816
:102430000346002B02D0FFF783FF49E0FFF780FF40
:10244000019B002B0CBF01230023DBB2254918465A
:1024500013F016F80346002B3AD11F4B02221A60E4
:102460001E480EF03DFEFFF763FF1C48FFF7E0FE3D
:102470000346012B0CBF01230023DBB21849184689
:1024800012F0FEFF0346002B02D0FFF759FF1FE0BA
:10249000FFF756FF104B03221A6002210F480EF07F
:1024A000DFFCFFF745FF0D48FFF7C2FE0346022B96
:1024B0000CBF01230023DBB20949184612F0E0FFEC
:1024C0000346002B02D0FFF73BFF01E0FFF738FF88
:1024D00003B05DF804FB00BF881900203020002005
:1024E0008480010840800108000000000000000016
:1024F00008B5002101480EF093FC08BD30200020F3
:1025000010B582B0384B01221A60384B1C68FFF7B7
:1025100087FE03465A1D364B0093364B4FF4A47189
:1025200020460DF0DDFF0246334B1A602F4B5C68EE
:10253000FFF776FE03465A1C304B00932D4B4FF4A9
:10254000A47120460DF0CCFF02462B4B5A60274B5E
:102550009C68FFF765FE0346DA1C294B0093254B68
:102560004FF4A47120460DF0BBFF0246224B9A6047
:102570001E4BDC68FFF754FE03461A1D214B0093E7
:102580001C4B4FF4A47120460DF0AAFF02461A4BD3
:10259000DA60164B1C69FFF743FE03469A1C1A4B80
:1025A0000093144B4FF4A47120460DF099FF02469E
:1025B000114B1A610C4B02221A6014480EF090FD68
:1025C00012480EF08DFD11480EF08AFD0F480EF0F6
:1025D00087FD0E480EF084FDFEF7D2FB0C490D4836
:1025E00012F066FF02B010BD881900206073010868
:1025F000347F01085123000818200020307F010893
:102600002C7F01082C620108507F01083020002037
:10261000387F01084C7F0108000000000000000026
:1026200008B5002101480EF0FBFB08BD302000205A
:1026300010B586B0674B01221A60002166480EF083
:10264000D7FC0490049BB3F1FF3F0CBF0123002390
:10265000DBB26249184612F013FF0346002B40F02C
:10266000B7805D48FFF79CFD03465D49184612F0B0
:1026700007FF0346002B40F0AB80574B9B68002BB5
:102680000CBF01230023DBB25649184612F0F8FEB6
:102690000346002B40F09C804E4B02221A60524BA6
:1026A0001C68FFF7BDFD03465A1E002300934F4BE5
:1026B0004FF4A47120460DF013FF02464C4B1A60F4
:1026C00041F2883144480EF093FC0490FEF758FB29
:1026D000049B002B0CBF01230023DBB23F491846AB
:1026E00012F0CEFE0346002B72D13B48FFF758FD97
:1026F00003463B49184612F0C3FE0346002B67D140
:10270000354B9B68002B0CBF01230023DBB23549FE
:10271000184612F0B5FE0346002B59D12D4B03226B
:102720001A60FEF755FB034640F6C4111846FFF742
:1027300017FD03900023059336E0059BDBB2413380
:10274000DBB2184612F07CFF4FF4FA7122480EF00B
:102750004FFC0490049BB3F1FF3F0CBF0123002307
:10276000DBB21E49184612F08BFE0346002B2FD118
:102770001948FFF715FD03461949184612F080FE67
:102780000346002B24D1144B9B68002B0CBF012364
:102790000023DBB21349184612F072FE0346002BE9
:1027A00016D1059B01330593059B042BC5D911490F
:1027B000114812F07DFE0346002B09D11421039825
:1027C000FFF7CEFC03460D4A1946039812F0A0FE0F
:1027D00006B010BD8819002030200020B880010804
:1027E000D0800108E08001086073010871230008AF
:1027F00018200020387F01084C7F0108087F01085D
:1028000008B5002101480EF00BFB08BD3020002068
:1028100010B582B01F4B01221A601F4B1C68FFF7D6
:10282000FFFC03465A1C1D4B00931D4B4FF4A47133
:1028300020460DF055FE02461A4B1A60154B022237
:102840001A60FFF7BDFC022117480EF0D9FC0DF00D
:102850002FFBFFF7BDFCFEF793FAFFF769FD124867
:10286000FFF7E6FC0346012B0CBF01230023DBB27C
:102870000E49184612F004FE0346002B02D0FFF763
:102880005FFD05E0FFF75CFD0949044812F010FE0A
:1028900002B010BD8819002060730108347F010860
:1028A0005123000818200020302000200481010856
:1028B000387F010800000000000000000000000058
:1028C00008B5002101480EF0ABFA08BD3020002009
:1028D00008B5FEF755FA08BD000000000000000032
:1028E00010B582B0294B01221A60294B1C68FFF7F2
:1028F00097FC03465A1C00230093264B4FF4A47107
:1029000020460DF0EDFD0246234B1A601F4B0222BC
:102910001A60224921480EF0C3FC2048FFF740FC12
:1029200003461F49184612F0ABFD0346002B2AD17F
:102930001A4B9B68002B0CBF01230023DBB2194903
:10294000184612F09DFD0346002B1CD10F4B0322AD
:102950001A60124911480EF0A3FC1048FFF720FC42
:1029600003460F49184612F08BFD0346002B0AD18F
:102970000A4B9B68002B0CBF01230023DBB20949E3
:10298000184612F07DFD02B010BD00BF881900206E
:1029900060730108A12300081820002030200020C7
:1029A000D0800108E0800108000000000000000065
:1029B00008B5FEF7E5F908BD0000000000000000C2
:1029C00010B586B0764B01221A6002AB0121184681
:1029D000FFF73EFCFFF7ACFC02AB1846FFF798FC94
:1029E00003467049184612F04BFD0346002B02D0F7
:1029F000FFF7A6FCD2E0FFF7A3FC694B02221A60A6
:102A000002AB01211846FFF74BFCFFF791FC02AB2C
:102A10001846FFF77DFC03466249184612F030FD68
:102A20000346002B02D0FFF78BFCB7E0FFF788FCD2
:102A30005B4B03221A605C4B1C68FFF7F1FB0346FB
:102A40005A1E02AB0093594B4FF4A47120460DF06F
:102A500047FD0246564B1A60514B04221A6002ABE6
:102A60001846FFF70DFC0590FFF762FC02AB184615
:102A7000FFF74EFC03464B49184612F001FD034692
:102A8000002B02D0FFF75CFC88E0FFF759FC059BA8
:102A9000002B0CBF01230023DBB24649184612F07D
:102AA000EFFC0346002B79D13D4B05221A6002ABA7
:102AB0001846FFF71DFCFFF73BFC02AB1846FFF77B
:102AC00027FC0346002B14BF01230023DBB283F055
:102AD0000103DBB203F00103DBB23749184612F001
:102AE000CFFC0346002B02D0FFF72AFC56E0FFF78D
:102AF00027FCFFF71DFC02AB1846FFF799FB0346C6
:102B0000012B0CBF01230023DBB22C49184612F025
:102B1000B7FC0346002B02D0FFF712FC3EE0FFF7A4
:102B20000FFC1F4B06221A6002AB1846FFF7E0FBB2
:102B3000FFF7FEFB02AB1846FFF7EAFB0346002B4C
:102B400014BF01230023DBB283F00103DBB203F0E7
:102B50000103DBB21A49184612F092FC0346002B1F
:102B600002D0FFF7EDFB19E0FFF7EAFBFFF7E0FB10
:102B700002AB1846FFF75CFB0346012B0CBF012399
:102B80000023DBB20D49184612F07AFC0346002BF5
:102B900002D0FFF7D5FB01E0FFF7D2FB06B010BD76
:102BA000881900203481010860730108C1230008DE
:102BB000182000204081010854810108608101082B
:102BC0003881010800000000000000000000000043
:102BD00082B020230193019B83F3118802B07047D8
:102BE00082B000230193019B83F3118802B07047E8
:102BF00082B00190019B1B68019A9A420CBF01238D
:102C00000023DBB2184602B0704700BF000000008E
:102C100008B5FFF7DDFF0CF053FB08BD0000000016
:102C200008B50CF065FB094B1B68084A93420AD0B3
:102C3000064B9B699A68054B1B689B689A4202D2B7
:102C400003480CF0CDF9FFF7CBFF08BD9010002032
:102C50007C8201080000000000000000000000006D
:102C6000014B9B691846704790100020000000003F
:102C700008B5FFF7F5FF03469B68184608BD00BF7F
:102C800000B583B0019007480EF06AFC019B1B78E9
:102C9000184612F0D5FC03480EF032FD03B05DF883
:102CA00004FB00BF480800200000000000000000F6
:102CB00000B583B001904FF4FA700DF0A9FD0448FF
:102CC0000EF04EFC02480EF01BFD03B05DF804FB55
:102CD0004808002000000000000000000000000084
:102CE00000B583B0019040F2DC500DF091FDFFF78C
:102CF0008FFF06480EF044FC04480EF079FD0DF0FD
:102D0000D7F8FFF78DFF03B05DF804FB58080020EB
:102D100000B583B0019008480EF022FC07480EF081
:102D20005FFF019B1B78184612F08AFC02480EF0E8
:102D3000E7FC03B05DF804FB4808002068080020A9
:102D400000B583B001900C480EF00AFC0B480EF061
:102D500007FC4FF0FF310A480EF08AFF019B1B78F9
:102D6000184612F06DFC05480EF0CAFC02480EF041
:102D7000C7FC03B05DF804FB580800204808002099
:102D800068080020000000000000000000000000B3
:102D900000B583B0019007480EF0E2FB019B1B7861
:102DA000184612F04DFC03480EF0AAFC03B05DF883
:102DB00004FB00BF580800200000000000000000D5
:102DC00008B502480EF0B4FB08BD00BF480800205B
:102DD00000B585B0394B01221A60FFF749FF039017
:102DE000364B02221A6036480EF0BAFB334B0322F0
:102DF0001A60344B1868039B5A1C334B0093334BB7
:102E00004FF4A4710DF06CFB0246314B1A602D4B50
:102E10005868039B9A1C2F4B00932C4B4FF4A471C2
:102E20000DF05EFB02462A4B5A60264B9868039BC6
:102E3000DA1C294B0093254B4FF4A4710DF050FB85
:102E40000246234B9A601F4BD868039B1A1D234BE5
:102E500000931E4B4FF4A4710DF042FB02461C4B35
:102E6000DA60184B1869039B5A1D1D4B0093174BD2
:102E70004FF4A4710DF034FB0246154B1A610F4B51
:102E800004221A600E480EF03BFCFDF779FFFFF7B5
:102E9000EFFE0246039B93420CBF01230023DBB2EB
:102EA0001049184612F0ECFA0346002B03D10E49E4
:102EB0000E4812F0FDFA05B05DF804FB88190020F9
:102EC0004808002060730108507F0108812C000829
:102ED000182000202C6201082C7F0108307F010897
:102EE000347F0108B4810108387F01084C7F010854
:102EF00008B503480EF01CFB02480EF019FB08BD94
:102F000048080020580800200000000000000000D1
:102F100008B5FDF735FF08BD000000000000000007
:102F200000B587B0574B01221A60FFF7A1FE05904C
:102F3000059B01330493059B02330393514B0222FB
:102F40001A60514B1868514B0093514B049A4FF43F
:102F5000A4710DF0C5FA02464E4B1A604A4B5868F0
:102F60004D4B00934D4B039A4FF4A4710DF0B8FAFA
:102F70000246484B5A60434B03221A6048480EF001
:102F8000EFFAFFF775FE0246059B93420CBF012343
:102F90000023DBB24349184612F072FA0346002BB5
:102FA0006CD1384B04221A604FF47A700DF030FC6B
:102FB000FFF75EFE0246049B93420CBF01230023F1
:102FC000DBB23849184612F05BFA0346002B55D1A4
:102FD0002C4B05221A6034480EF0C2FAFFF748FE67
:102FE0000246049B93420CBF01230023DBB22D4910
:102FF000184612F045FA0346002B3FD1214B06221A
:103000001A604FF47A700DF003FCFFF731FE0246B0
:10301000039B93420CBF01230023DBB221491846D6
:1030200012F02EFA0346002B28D1164B07221A6005
:103030001D480EF065FBFFF71BFE0246049B934202
:103040000CBF01230023DBB21649184612F018FA10
:103050000346002B12D10B4B08221A6010480EF0C9
:103060004FFBFFF705FE0246059B93420CBF012371
:103070000023DBB20B49184612F002FA07B05DF8E4
:1030800004FB00BF8819002060730108347F010829
:10309000B12C000818200020307F0108E12C000826
:1030A00048080020B48101085808002000000000F2
:1030B00008B502480EF03CFA08BD00BF48080020E1
:1030C00000B583B0614B01221A60FFF7D1FD01907A
:1030D0005E4B02221A605E480EF0D2FA03468DF86B
:1030E00003309DF803305B49184612F0C9F90346D6
:1030F000002B40F0A780554B03221A6054480EF075
:10310000BFFA03468DF803309DF80330002B14BF3F
:1031100001230023DBB283F00103DBB203F00103E0
:10312000DBB24D49184612F0ABF90346002B40F0D4
:103130008980464B04221A6045480EF0E1FA444B60
:103140009B68002B0CBF01230023DBB243491846C8
:1031500012F096F90346002B74D13D48FFF748FD65
:1031600003463F49184612F08BF90346002B69D1FC
:10317000364B05221A60FFF77BFD0246019B934206
:103180000CBF01230023DBB23649184612F078F950
:103190000346002B56D12D4B06221A602C480EF008
:1031A0006FFA03468DF803309DF80330294918461D
:1031B00012F066F90346002B44D125480EF060FA60
:1031C00003468DF803309DF80330002B14BF012314
:1031D0000023DBB283F00103DBB203F00103DBB2B7
:1031E0001D49184612F04CF90346002B2AD10EF067
:1031F0006FFB174B9B68002B0CBF01230023DBB236
:103200001649184612F03CF90346002B1AD1104813
:10321000FFF7EEFC03461249184612F031F9034657
:10322000002B0FD1094B07221A60FFF721FD024640
:10323000019B93420CBF01230023DBB209491846CE
:1032400012F01EF903B05DF804FB00BF88190020DE
:1032500048080020EC810108FC810108088201086F
:10326000D0800108B48101080000000000000000C7
:1032700008B503480EF014FC02480EF059F908BDD9
:10328000680800204808002000000000000000003E
:1032900000B585B0364B01221A60FFF7E9FC0390B8
:1032A000344B1868039B5A1C334B0093334B4FF439
:1032B000A4710DF015F90246314B1A602D4B586878
:1032C000039B9A1C2F4B00932C4B4FF4A4710DF0D1
:1032D00007F902462A4B5A60264B9868039BDA1C72
:1032E000294B0093254B4FF4A4710DF0F9F80246D9
:1032F000234B9A601F4BD868039B1A1D234B0093E6
:103300001E4B4FF4A4710DF0EBF802461C4BDA6033
:10331000184B1869039B5A1D1D4B0093174B4FF414
:10332000A4710DF0DDF80246154B1A61104B022214
:103330001A60FFF76DFC17480EF0F2FB15480EF00F
:10334000EFFB14480EF0ECFB12480EF0E9FB1148BD
:103350000EF0E6FB0CF0ACFDFFF762FCFDF710FD94
:103360000D490E4812F0A4F805B05DF804FB00BF4B
:103370008819002060730108507F0108112D000892
:10338000182000202C6201082C7F0108307F0108E2
:10339000347F010868080020387F01084C7F01084D
:1033A00008B503480EF07CFB02480EF0C1F808BDDA
:1033B000680800204808002000000000000000000D
:1033C00000B585B02D4B01221A60FFF751FC039028
:1033D0002B4B1868039B5A1C2A4B00932A4B4FF423
:1033E000A4710DF07DF80246284B1A60244B5868F2
:1033F000039B9A1C264B0093234B4FF4A4710DF0B2
:103400006FF80246214B5A601D4B9868039BDA1CEB
:10341000204B00931C4B4FF4A4710DF061F8024651
:103420001A4B9A60164BD868039B1A1D1A4B0093CF
:10343000154B4FF4A4710DF053F80246134BDA60AC
:103440000F4B1869039B5A1D144B00930E4B4FF4FE
:10345000A4710DF045F802460C4B1A61074B02228D
:103460001A600F480EF084FBFDF78AFC0D490E48E8
:1034700012F01EF805B05DF804FB00BF88190020AB
:1034800060730108507F0108112D000818200020EA
:103490002C6201082C7F0108307F0108347F01086D
:1034A00068080020387F01084C7F010800000000F8
:1034B00008B505480EF0F4FA04480EF039F804484F
:1034C0000EF036F808BD00BF68080020480800204C
:1034D000580800200000000000000000000000006C
:1034E00000B585B0284B01221A60FFF7C1FB03909D
:1034F000254B02221A60254B1868039B5A1C244B4B
:103500000093244B4FF4A4710CF0EAFF0246224BC7
:103510001A601D4B03221A601C4B5868039B9A1CAF
:103520001E4B00931E4B4FF4A4710CF0D9FF0246C2
:10353000194B5A60144B04221A60144B9868039B71
:10354000DA1C184B0093184B4FF4A4710CF0C8FF11
:103550000246114B9A600C4B05221A6013480EF07C
:10356000B7FA094B06221A6010480EF0B1FA064B62
:1035700007221A60FDF704FC0D490E4811F098FF70
:1035800005B05DF804FB00BF8819002060730108D6
:10359000347F0108412D0008182000202C7F0108ED
:1035A000112D0008307F0108912D000868080020C7
:1035B000387F01084482010800000000000000007C
:1035C000014B9B69184670479010002000000000D6
:1035D00008B5FFF7F5FF03469B68184608BD00BF16
:1035E00000B583B00190019B93F820300D2B02D0E1
:1035F00004480BF0F5FC019B5B6A184603B05DF8CC
:1036000004FB00BFB08201080000000000000000C1
:1036100000B583B00190412101980EF019FF4221BD
:1036200001980EF015FF432101980EF011FF44217F
:1036300001980EF00DFF03B05DF804FB00000000E0
:1036400030B587B01D4B01221A601D4B1C68FFF777
:10365000BFFF03465D1CFFF7B3FF03460093194B02
:103660002A464FF4A47120460CF03AFF0246164B4E
:103670001A60124B02221A600023059312E00EF02A
:103680001FFF04900498FFF7ABFF03900399049881
:103690000EF03EFF039BDBB2184611F0D1FF059BF5
:1036A00001330593059B032BE9D9FDF769FB074916
:1036B000074811F0FDFE07B030BD00BF881900209B
:1036C000607301081136000818200020387F0108B7
:1036D00088820108000000000000000000000000D7
:1036E00082B001900091019A009B1344184602B0E9
:1036F000704700BF00000000000000000000000054
:1037000082B020230193019B83F3118802B070479C
:1037100082B000230193019B83F3118802B07047AC
:1037200008B5FFF7EDFF0BF0CBFD08BD0000000072
:1037300008B50BF0DDFD094B1B68084A93420AD01F
:10374000064B9B699A68054B1B689B689A4202D29C
:1037500003480BF045FCFFF7DBFF08BD901000208D
:10376000EC830108000000000000000000000000E1
:10377000014B9B6918467047901000200000000024
:1037800008B5FFF7F5FF03469B68184608BD00BF64
:1037900082B00190019B019A1A6002B0704700BF8D
:1037A00000B585B00390029101924FF0FF33019A6A
:1037B000029903980EF0FCFA05B05DF804FB00BF17
:1037C00082B00190019B1B68019A9A4214BF0123A9
:1037D0000023DBB2184602B0704700BF00000000B3
:1037E00000B583B00190002101980EF009FC03B0F0
:1037F0005DF804FB00000000000000000000000075
:1038000008B5FFF78DFF08BD0000000000000000B4
:1038100008B5FFF78DFF08BD0000000000000000A4
:1038200000B583B00190412011F00AFF03B05DF8AC
:1038300004FB00BF000000000000000000000000CA
:1038400000B583B00190422011F0FAFE03B05DF89C
:1038500004FB00BF000000000000000000000000AA
:1038600000B583B00190432011F0EAFE03B05DF88B
:1038700004FB00BF0000000000000000000000008A
:1038800000B583B001904FF4FA700CF0C1FF012134
:1038900001980EF05DFB03B05DF804FB0000000032
:1038A00000B583B001900648FFF79AFF4FF4FA7015
:1038B0000CF0AEFF0348FFF793FF03B05DF804FB85
:1038C00070080020740800200000000000000000C4
:1038D00000B58BB0344B01221A603448FFF758FF13
:1038E000314B02221A6005AB012219462F48FFF71F
:1038F00057FF6B46022219462C48FFF751FFFFF78E
:103900007FFF2A48FFF75CFF03462949184611F05C
:10391000B7FD0346002B02D0FFF77AFF40E0FFF728
:1039200077FF214B03221A6005AB19461F480EF0A2
:103930006FFAFFF765FF1D48FFF742FF03461C497A
:10394000184611F09DFD0346002B02D0FFF760FFE3
:1039500026E0FFF75DFF144B04221A606B46194600
:1039600012480EF055FAFFF74BFF1048FFF728FFFB
:103970000346002B14BF01230023DBB283F00103B5
:10398000DBB203F00103DBB20A49184611F078FDFF
:103990000346002B02D0FFF73BFF01E0FFF738FFA3
:1039A0000BB05DF804FB00BF8819002070080020F0
:1039B000C8820108D4820108000000000000000055
:1039C00008B54FF0FF300EF06BFA08BD00000000A4
:1039D00008B5064B01221A60072105480EF028FBA6
:1039E0000449054811F064FD08BD00BF8819002096
:1039F000BC820108387F01084482010800000000F1
:103A000008B54FF0FF300EF04BFA08BD0000000083
:103A100030B585B0544B01221A6007200EF050FAE1
:103A2000514B02221A604FF0FF300EF041FB039021
:103A3000039B012B0CBF01230023DBB24B4918462B
:103A400011F01EFD0346002B40F08C804FF0FF303C
:103A50000EF02EFB0390039B022B0CBF01230023CF
:103A6000DBB24249184611F00BFD0346002B79D119
:103A70004FF0FF300EF01CFB0390039B042B0CBF98
:103A800001230023DBB23949184611F0F9FC034643
:103A9000002B67D14FF0FF300EF002FA0390039B2A
:103AA000002B0CBF01230023DBB23149184611F073
:103AB000E7FC0346002B55D12B4B03221A60FDF780
:103AC00087F903464FF4FA711846FFF709FE029092
:103AD000284B1C68FFF754FE03465D1EFFF748FEA7
:103AE00003460093244B2A464FF4A47120460CF061
:103AF000F7FC0246214B1A601B4B04221A604FF060
:103B0000FF300EF0D5FA039014210298FFF7E8FD7C
:103B100003461B4A1946029811F0FAFC0346002B93
:103B200020D1039B012B0CBF01230023DBB21549DD
:103B3000184611F0A5FC0346002B13D14FF0FF30BF
:103B40000EF0AEF90390039B002B0CBF0123002362
:103B5000DBB20749184611F093FC0346002B01D154
:103B6000FDF70EF905B030BD881900200483010867
:103B700018830108607301088138000818200020AC
:103B8000087F0108248301080000000000000000F5
:103B900008B54FF0FF300EF083F908BD00000000BB
:103BA00030B585B0424B01221A6005200EF088F92D
:103BB0003F4B02221A604FF0FF300EF0A9FA03903B
:103BC000039B052B0CBF01230023DBB239491846A8
:103BD00011F056FC0346002B67D14FF0FF300EF07A
:103BE0005FF90390039B002B0CBF01230023DBB282
:103BF0003149184611F044FC0346002B55D12C4B9B
:103C000003221A60FDF7E4F803464FF4FA711846F0
:103C1000FFF766FD0290294B1C68FFF7B1FD0346D4
:103C20005D1EFFF7A5FD03460093254B2A464FF482
:103C3000A47120460CF054FC0246224B1A601C4B27
:103C400004221A604FF0FF300EF062FA0390142144
:103C50000298FFF745FD03461B4A1946029811F0EA
:103C600057FC0346002B20D1039B012B0CBF0123E3
:103C70000023DBB21549184611F002FC0346002B65
:103C800013D14FF0FF300EF00BF90390039B002B84
:103C90000CBF01230023DBB20749184611F0F0FBEB
:103CA0000346002B01D1FDF76BF805B030BD00BF16
:103CB00088190020488301081883010860730108EF
:103CC0008138000818200020087F0108248301089B
:103CD00008B54FF0FF300EF0E3F808BD000000001B
:103CE00030B585B0444B01221A6005200EF0E8F88B
:103CF000414B02221A6005200EF03AFA0390039B12
:103D0000052B0CBF01230023DBB23C49184611F000
:103D1000B7FB0346002B6CD14FF0FF300EF0C0F81C
:103D20000390039B002B0CBF01230023DBB234491B
:103D3000184611F0A5FB0346002B5AD12E4B032247
:103D40001A6004200EF0BCF82B4B04221A60FDF719
:103D50003FF803464FF4FA711846FFF7C1FC029092
:103D6000284B1C68FFF70CFD03465D1EFFF700FDA6
:103D700003460093244B2A464FF4A47120460CF0CE
:103D8000AFFB0246214B1A601B4B05221A6005202F
:103D90000EF0EEF9039014210298FFF7A1FC034600
:103DA0001B4A1946029811F0B3FB0346002B20D1A1
:103DB000039B052B0CBF01230023DBB215491846DA
:103DC00011F05EFB0346002B13D14FF0FF300EF0D5
:103DD00067F80390039B002B0CBF01230023DBB289
:103DE0000749184611F04CFB0346002B01D1FCF7A4
:103DF000C7FF05B030BD00BF881900204883010807
:103E00001883010860730108813800081820002019
:103E1000087F010870830108000000000000000016
:103E200008B54FF0FF300EF03BF808BD0000000071
:103E300000B583B03D4B01221A6000214FF0FF30E6
:103E40000EF0BEF90190019B002B0CBF0123002353
:103E5000DBB23749184611F013FB0346002B61D142
:103E600000214FF0FF300EF0EBF90190019B002B89
:103E70000CBF01230023DBB22D49184611F000FBD3
:103E80000346002B4ED100214FF0FF300EF018FA00
:103E90000190019B002B0CBF01230023DBB22449BE
:103EA000184611F0EDFA0346002B3BD11F4B0222BE
:103EB0001A604FF4FA714FF0FF300EF081F9019063
:103EC000019B002B0CBF01230023DBB218491846CD
:103ED00011F0D6FA0346002B24D14FF4FA714FF0BB
:103EE000FF300EF0ADF90190019B002B0CBF0123B8
:103EF0000023DBB20E49184611F0C2FA0346002B2C
:103F000010D14FF4FA714FF0FF300EF0D9F9019053
:103F1000019B002B0CBF01230023DBB20449184690
:103F200011F0AEFA03B05DF804FB00BF8819002061
:103F30009483010800000000000000000000000061
:103F400008B54FF0FF300DF0ABFF0348FFF720FC42
:103F50000248FFF71DFC08BD70080020740800200F
:103F600010B58EB0464B01221A6007AB01221946EC
:103F70004448FFF715FC02AB042219464248FFF7FC
:103F80000FFC3F4B02221A60FCF722FF03464FF45E
:103F9000FA711846FFF7A4FB0D903C4B1C68FFF725
:103FA000EFFB03465A1E3A4B00933A4B4FF4A47171
:103FB00020460CF095FA0246374B1A60304B03222C
:103FC0001A6005200EF0D4F80C9014210D98FFF71C
:103FD00087FB0346314A19460D9811F099FA0346BA
:103FE000002B4BD14FF0FF300DF05AFF0C900C9B83
:103FF000002B0CBF01230023DBB22949184611F026
:104000003FFA0346002B39D1FCF7BAFE1C4B0422C1
:104010001A6007AB19461B480DF0FAFE02AB1946B1
:1040200019480DF0F5FE1748FFF7CAFB0346002BB1
:1040300014BF01230023DBB283F00103DBB203F0E2
:104040000103DBB21749184611F01AFA0346002B98
:1040500014D10D48FFF7B4FB0346002B14BF012316
:104060000023DBB283F00103DBB203F00103DBB218
:104070000C49184611F004FA0346002B0EB010BD8F
:10408000881900207008002074080020607301085F
:10409000347F0108A138000818200020087F01089B
:1040A00018830108D482010800000000000000000D
:1040B000014B9B69184670479010002000000000DB
:1040C00008B5FFF7F5FF03469B68184608BD00BF1B
:1040D00000B585B0039002910192019B04220299E0
:1040E00003980FF03DF905B05DF804FB00000000F7
:1040F00000B583B00190019B1B78184611F0A0FA1F
:1041000003B05DF804FB00BF0000000000000000E9
:1041100008B54FF4CD62024902480EF0B9FE08BD61
:10412000B01900203C20002000000000000000002A
:1041300000B58BB0614B01221A60FFF7C1FF0990F7
:104140005E4B02221A6005AA06AB19465C480FF0C6
:1041500047F80890089B012B0CBF01230023DBB21A
:104160005849184611F08CF90346002B40F0A38003
:10417000524B03221A60099B5A1E534B0193534B17
:1041800000931346524A4FF4A4714D480EF018FAAA
:104190000246504B1A604F4B1B68002B14BF012383
:1041A0000023DBB24C49184611F06AF90346002B94
:1041B00040F08180414B04221A60099B9A1E474BB4
:1041C0000193424B00931346454A4FF4A4713C4877
:1041D0000EF0F6F902463F4B5A603E4B5B68002BEF
:1041E00014BF01230023DBB23B49184611F048F904
:1041F0000346002B5FD1314B05221A60099BDA1E62
:10420000384B0193314B00931346374A4FF000412E
:104210002B480EF0D5F902462E4B9A602D4B9B6829
:10422000002B0CBF01230023DBB23049184611F0EC
:1042300027F90346002B3ED1204B06221A60FCF7DB
:104240009FFD2B492B4811F033F90346002B32D147
:104250001A4B07221A6003AA04AB194618480EF03D
:10426000BFFF0790089A079B9A420CBF01230023C7
:10427000DBB22149184611F003F90346002B1AD18D
:10428000069A049B9A420CBF01230023DBB21B4910
:10429000184611F0F5F80346002B0CD1059A039B44
:1042A0009A420CBF01230023DBB21549184611F0D6
:1042B000E7F80346002B0BB05DF804FB88190020DB
:1042C0003C200020F8830108347F0108F1400008F9
:1042D000088401081820002010840108307F01089C
:1042E000288401082C7F01083084010838840108E3
:1042F000387F01085484010858840108708401083B
:104300008C84010800000000000000000000000094
:1043100008B500224FF4A4710148FFF7D9FE08BD8B
:1043200058200020000000000000000000000000F5
:1043300000B585B05F4B01221A60002303930AE0A9
:104340005D4A039B52F8233019465C480FF0D0F8C1
:10435000039B01330393039B032BF1D9554B02229B
:104360001A60FFF7ADFE0290524B03221A60029BC7
:104370005A1E534B0093534B534950480EF060F96B
:104380000246524B1A60029B9A1E514B00934D4BB2
:1043900050494A480EF054F902464C4B5A60029B71
:1043A000DA1E4D4B0093474B4C4944480EF048F9F8
:1043B0000246464B9A60029B1A1F494B0093414BA1
:1043C00048493E480EF03CF90246404BDA60029BF9
:1043D0005A1F454B00933B4B444938480EF030F987
:1043E00002463A4B1A61334B04221A60374B1B6862
:1043F000002B0DD0354B5B68002B09D0334B9B68ED
:10440000002B05D0314BDB68002B01D0012300E0ED
:10441000002303F00103DBB23549184611F030F8F0
:104420000346002B42D1294B1B69002B0CBF0123F3
:104430000023DBB22F49184611F022F80346002B67
:1044400034D11C4B05221A60FCF79AFC2A492B48F0
:1044500011F02EF80346002B28D1164B06221A60C5
:104460000023039312E015480FF00AF80346002BCF
:1044700014BF01230023DBB22149184611F000F8D4
:104480000346002B12D1039B01330393039B032BA1
:10449000E9D90A480EF0F4FF0346002B0CBF0123B4
:1044A0000023DBB21749184610F0EAFF05B05DF8AB
:1044B00004FB00BF88190020607301085820002009
:1044C000347F0108F140000808840108182000200A
:1044D000307F0108288401082C7F010830840108FE
:1044E0002C620108BC840108507F0108C4840108C3
:1044F0001084010838840108387F01088882010887
:10450000CC840108DC8401080000000000000000E9
:1045100082B001900091019A009B1344184602B0AA
:10452000704700BF00000000000000000000000015
:1045300084B0039002910192039A029BD21A0199CE
:10454000029BCB1A9A4234BF01230023DBB21846E8
:1045500004B07047000000000000000000000000F0
:1045600082B020230193019B83F3118802B070472E
:1045700082B000230193019B83F3118802B070473E
:104580004FF080435B6A1846704700BF0000000090
:1045900008B5FFF7F5FF0346184608BD0000000008
:1045A00008B5FFF7DDFF0AF08BFE08BD0000000034
:1045B00008B50AF09DFE094B1B68084A93420AD0D1
:1045C000064B9B699A68054B1B689B689A4202D20E
:1045D00003480AF005FDFFF7CBFF08BD901000204F
:1045E0002887010800000000000000000000000013
:1045F00008B5FFF7CDFF0346184608BD00000000D0
:1046000000B583B001900091FFF7F2FF0346009AD6
:1046100001991846FFF78CFF0346184603B05DF872
:1046200004FB00BF000000000000000000000000CC
:10463000014B9B6918467047901000200000000055
:1046400008B5FFF7F5FF03469B68184608BD00BF95
:1046500008B5FFF7EDFF034693F8213003F004039C
:10466000002B14BF01230023DBB2184608BD00BF96
:1046700000B583B00190019B93F820300D2B02D040
:1046800004480AF0ADFC019B5B6A184603B05DF874
:1046900004FB00BF1C8701080000000000000000B0
:1046A00082B0019002B070470000000000000000DE
:1046B00000B585B001900DF003FF03900398FFF75C
:1046C000D7FF0290029903980DF022FF029B002B66
:1046D000F1D105B05DF804FB00000000000000000F
:1046E00000B587B0019000230593FCF771FB04909F
:1046F00042F210710498FFF70BFF0390012101981B
:104700000DF0A6FE059B0133059303990498FFF76E
:1047100077FF0346002BF1D1002101980DF098FEA0
:10472000059B184607B05DF804FB00BF00000000C1
:1047300000B583B00190019B18460BF089FF03B0D0
:104740005DF804FB00000000000000000000000015
:1047500000B585B00190FFF76BFF0390FFF720FFD6
:1047600003200BF095FA039B5B6A0293029B002BDC
:10477000F6D0FFF71DFF05B05DF804FB0000000058
:1047800000B583B0019002E006480CF0D1FBFFF7C2
:104790005FFF034683F00103DBB2002BF4D103B0CB
:1047A0005DF804FB6820002000000000000000000D
:1047B00000B583B001900CF053F80CF051F80CF0F8
:1047C0004FF80CF04DF8019B1B681A1D019B1A60F5
:1047D000FFF73EFF034683F00103DBB2002BEAD173
:1047E00003B05DF804FB00BF000000000000000003
:1047F00010B584B01A4B01221A601A4B1C68FFF7DF
:104800001FFF03465A1E00230093174B4FF4A47159
:1048100020460BF065FE0246144B1A60104B022234
:104820001A60124B1B681846FFF75AFF0390FCF7FB
:10483000A7FA0B4B03221A600D4810F0C9FE03982B
:1048400010F07EFE0B4810F0C3FE039B5B00184681
:1048500010F076FE084810F0DBFE04B010BD00BF7B
:104860008819002060730108B14600081820002054
:104870001485010824850108308501080000000026
:1048800010B584B01A4B01221A601A4B1C68FFF74E
:10489000D7FE03465A1C00230093174B4FF4A47114
:1048A00020460BF01DFE0246144B1A60104B0222EC
:1048B0001A60124B1B681846FFF712FF0390FCF7B3
:1048C0005FFA0B4B03221A600D4810F081FE03982B
:1048D00010F036FE0B4810F07BFE039B5B00184681
:1048E00010F02EFE084810F093FE04B010BD00BF7B
:1048F0008819002060730108B146000818200020C4
:104900001485010824850108308501080000000095
:1049100010B584B03D4B01221A603D4B1C68FFF777
:104920008FFE03465A1C002300933A4B4FF4A471A8
:1049300020460BF0D5FD0246374B1A60334B02225E
:104940001A60334B5C68FFF77BFE03469A1E002318
:104950000093324B4FF4A47120460BF0C1FD024688
:104960002D4B5A602A4B9C68FFF76AFE0346DA1EFD
:1049700000230093294B4FF4A47120460BF0B0FDA7
:104980000246254B9A60224BDC68FFF759FE03462E
:104990001A1F00230093214B4FF4A47120460BF003
:1049A0009FFD02461C4BDA60194B1C69FFF748FE5D
:1049B00003465A1F00230093184B4FF4A47120465E
:1049C0000BF08EFD0246144B1A61104B03221A6045
:1049D000114B1B681846FFF783FE0390FCF7D0F9D4
:1049E0000A4B04221A600E4810F0F2FD039810F0F2
:1049F000A7FD0C4810F0ECFD039B5B00184610F07F
:104A00009FFD094810F004FE04B010BD8819002075
:104A100060730108B14600081820002031470008E3
:104A20001485010824850108308501080000000074
:104A300010B586B0304B01221A60304B1C68FFF76E
:104A4000FFFD03465A1C002300932D4B4FF4A47125
:104A500020460BF045FD02462A4B1A60294B1B6885
:104A60000493254B02221A6000230593FCF7B0F94A
:104A7000039042F210710398FFF74AFD0290FFF78E
:104A80008FFD002104980BF0BBF9002104980BF076
:104A9000B7F9002104980BF0B3F9002104980BF04A
:104AA000AFF9FFF785FD059B043305930299039841
:104AB000FFF7A6FD0346002BE1D10F4B03221A603E
:104AC000FFF76EFD4FF0FF3104980BF099F9FFF7F7
:104AD0006FFDFCF755F9084B04221A600A4810F0E4
:104AE00077FD059B5B00184610F02AFD074810F083
:104AF0008FFD06B010BD00BF88190020607301084B
:104B0000514700081820002014850108308501084D
:104B100000B587B0FFF794FD0346013B04931A4BA1
:104B200001221A6000230593FCF752F9039042F228
:104B300010710398FFF7ECFC0290144B18680023E7
:104B40000093134B049A4FF4A4710BF0C9FC034675
:104B500018460BF0CDFD059B013305930299039890
:104B6000FFF74EFD0346002BE7D1074B02221A60E8
:104B7000084810F02DFD059810F0E2FC064810F0F2
:104B800047FD07B05DF804FB881900206073010839
:104B900031470008148501087C85010800000000E9
:104BA00000B587B0FFF74CFD0346013304931A4B61
:104BB00001221A6000230593FCF70AF9039042F2E0
:104BC00010710398FFF7A4FC0290144B186800239F
:104BD0000093134B049A4FF4A4710BF081FC03462D
:104BE00018460BF0E5FC059B0133059302990398E9
:104BF000FFF706FD0346002BE7D1074B02221A60A0
:104C0000084810F0E5FC059810F09AFC064810F0F2
:104C1000FFFC07B05DF804FB8819002060730108F1
:104C200031470008148501087C8501080000000058
:104C300008B5002101480CF0F3F808BD68200020F9
:104C400010B586B04B4B01221A604B4B1C68FFF726
:104C5000F7FC03465A1D00230093484B4FF4A47100
:104C600020460BF03DFC0246454B1A60424B5C6807
:104C7000FFF7E6FC03461A1D002300933F4B4FF459
:104C8000A47120460BF02CFC02463D4B5A603A4B77
:104C90009C68FFF7D5FC0346DA1C00230093374BD2
:104CA0004FF4A47120460BF01BFC0246344B9A6073
:104CB000314BDC68FFF7C4FC03469A1C00230093C9
:104CC0002E4B4FF4A47120460BF00AFC02462C4BED
:104CD000DA60294B1C69FFF7B3FC03465A1C00231A
:104CE0000093264B4FF4A47120460BF0F9FB0246CB
:104CF000234B1A611F4B02221A6000230593FCF715
:104D000067F8049042F210710498FFF701FC0390D9
:104D100000211C480CF0A4F8059B0133059303996E
:104D20000498FFF76DFC0346002BF1D1114B0322D1
:104D30001A60FCF705F8002112480CF091F8FCF716
:104D40001FF80C4B04221A600F4810F041FC059824
:104D500010F0F6FB0D4810F03BFC059A13465B0083
:104D600013445B00184610F0EBFB094810F050FCB0
:104D700006B010BD88190020607301088147000843
:104D8000182000206820002014850108A88501084B
:104D90003085010800000000000000000000000055
:104DA00010B584B03A4B01221A6000230393FCF73C
:104DB0000FF8384B1C68FFF743FC03465A1E03AB41
:104DC0000093354B4FF4A47120460BF089FB02464B
:104DD000324B1A602F4B5C68FFF732FC03465A1EB9
:104DE00003AB00932C4B4FF4A47120460BF078FBDF
:104DF00002462A4B5A60274B9C68FFF721FC03466A
:104E00005A1E03AB0093244B4FF4A47120460BF0C1
:104E100067FB0246214B9A601E4BDC68FFF710FCD3
:104E200003465A1E03AB00931B4B4FF4A47120465C
:104E30000BF056FB0246194BDA60164B1C69FFF764
:104E4000FFFB03465A1E03AB0093134B4FF4A471B0
:104E500020460BF045FB0246104B1A610C4B022218
:104E60001A6042F210700BF0D3FCFBF769FFFBF7FE
:104E700087FF074B03221A60094810F0A9FB039B28
:104E8000184610F05DFB074810F0C2FB04B010BDDF
:104E90008819002060730108B1470008182000201D
:104EA00014850108308501080000000000000000A2
:104EB00000B585B01F4B01221A6000230393FBF756
:104EC00087FF029042F210710298FFF721FB0190D8
:104ED000FFF766FB0023184A012118480AF070FC0E
:104EE0000023154A42F2107115480AF069FC134874
:104EF0000AF016FD12480AF013FDFFF759FB039B59
:104F00000133039301990298FFF77AFB0346002BC4
:104F1000DED1084B02221A600A4810F059FB039BAD
:104F20005B00184610F00CFB074810F071FB05B051
:104F30005DF804FB88190020A146000884200020A9
:104F40009820002014850108DC850108000000007D
:104F500008B5012101480BF063FF08BD682000205F
:104F600000B585B0204B01221A6000230393FBF7A4
:104F70002FFF029042F210710298FFF7C9FA0190D8
:104F80001A480BF0D5FF19480CF0AAF817480BF097
:104F9000CFFF16480CF0A4F814480BF0C9FF1348D3
:104FA0000CF09EF811480BF0C3FF10480CF098F875
:104FB000039B0133039301990298FFF721FB0346FA
:104FC000002BDDD1084B02221A60094810F000FBCB
:104FD000039B9B00184610F0B3FA064810F018FB2C
:104FE00005B05DF804FB00BF881900206820002090
:104FF00014850108F8850108000000000000000089
:1050000008B502480CF094FA08BD00BF74200020D7
:1050100000B585B0204B01221A6000230393FBF7F3
:10502000D7FE029042F210710298FFF771FA0190D8
:105030001A480CF095FA19480CF062FB17480CF06E
:105040008FFA16480CF05CFB14480CF089FA1348F0
:105050000CF056FB11480CF083FA10480CF050FB92
:10506000039B0133039301990298FFF7C9FA0346A2
:10507000002BDDD1084B02221A60094810F0A8FA73
:10508000039B9B00184610F05BFA064810F0C0FA2C
:1050900005B05DF804FB00BF8819002074200020D3
:1050A00014850108188601080000000000000000B7
:1050B00008B5374B01221A60364810F089FA40F6DD
:1050C000880010F03DFA344810F0A2FA304B02226A
:1050D0001A60324810F07CFA442010F031FA2E4861
:1050E00010F096FA2A4B03221A602D4810F070FA3D
:1050F000142010F025FA284810F08AFA244B0422D4
:105100001A60284810F064FA0C2010F019FA2248AE
:1051100010F07EFA1E4B05221A60234810F058FA50
:10512000102010F00DFA1C4810F072FA184B0622ED
:105130001A601E4810F04CFA082010F001FA1648C8
:1051400010F066FA124B07221A60194810F040FA64
:10515000042010F0F5F9104810F05AFA0C4B082210
:105160001A60144810F034FA142010F0E9F90A48D3
:1051700010F04EFA064B09221A600F4810F028FA78
:10518000282010F0DDF9044810F042FA08BD00BFF5
:1051900088190020388601084886010850860108D1
:1051A00060860108708601088086010890860108E3
:1051B000A0860108B0860108C08601080000000032
:1051C00082B020230193019B83F3118802B07047C2
:1051D00082B000230193019B83F3118802B07047D2
:1051E00008B5FFF7EDFF0AF06BF808BD00000000FE
:1051F00008B50AF07DF8094B1B68084A93420AD0AB
:10520000064B9B699A68054B1B689B689A4202D2C1
:10521000034809F0E5FEFFF7DBFF08BD9010002012
:10522000608801080000000000000000000000008D
:1052300082B00190019B5B681A46019B1B68D31AE0
:105240009B10184602B070470000000000000000EC
:1052500000B583B001900AF0D3F8019B1B69184692
:1052600003B05DF804FB00BF000000000000000078
:1052700010B582B001900AF0C3F80198FFF7D8FF8B
:1052800004460198FFF7E4FF0346E31A184602B00C
:1052900010BD00BF00000000000000000000000082
:1052A00082B00190019B00221A7502B0704700BFC6
:1052B00008B5FFF795FF08BD0000000000000000E2
:1052C00008B5FFF795FF08BD0000000000000000D2
:1052D00008B50422024903480DF08AFA08BD00BF50
:1052E000AC20002078080020000000000000000032
:1052F00008B502480DF0B4FA08BD00BF78080020D8
:1053000000B585B0A54B01221A60FFF7D1FFA44874
:10531000FFF7AEFF0346042B0CBF01230023DBB2D3
:10532000A049184610F0ACF80346002B02D0FFF756
:10533000C7FFF1E1FFF7C4FF984B02221A609848BB
:105340000DF08EFAFFF7B4FF9548FFF791FF034683
:10535000042B0CBF01230023DBB29349184610F045
:105360008FF80346002B02D0FFF7AAFFD4E1FFF726
:10537000A7FFFFF79DFF8A48FFF76AFF0346002B50
:105380000CBF01230023DBB28849184610F078F8DF
:105390000346002B02D0FFF793FFBDE1FFF790FF1C
:1053A000FFF786FF7E4B1A687D4B9B689A420CBFC5
:1053B00001230023DBB27E49184610F061F8034652
:1053C000002B02D0FFF77CFFA6E1FFF779FFFFF784
:1053D0006FFF734B1A68724BDB689A420CBF012354
:1053E0000023DBB27349184610F04AF80346002B3D
:1053F00002D0FFF765FF8FE1FFF762FF674B0322E3
:105400001A604FF0FF32002165480DF069FA0290F2
:10541000029B13F1020F0CBF01230023DBB266498C
:10542000184610F02DF80346002B40F075814FF020
:10543000FF3200215A480DF0FBFA0290029B13F153
:10544000020F0CBF01230023DBB25B49184610F0AA
:1054500017F80346002B40F05F8101AB4FF0FF329D
:1054600019464F480DF094FB0290029B13F1020F76
:105470000CBF01230023DBB24F49184610F000F89F
:105480000346002B40F048814548FFF709FF434B96
:1054900004221A600023039319E0039B42334FF068
:1054A000FF3219463E480DF01BFA0290029B002B7A
:1054B0000CBF01230023DBB2404918460FF0E0FF88
:1054C0000346002B40F02881039B01330393039B89
:1054D000022BE2D94FF0FF32412131480DF0A8FAFA
:1054E0000290029B002B0CBF01230023DBB2334947
:1054F00018460FF0C5FF0346002B40F00D81274BE7
:1055000005221A60FFF7D4FE2548FFF7B1FE0346D7
:10551000002B0CBF01230023DBB2294918460FF0F2
:10552000AFFF0346002B02D0FFF7CAFEF4E0FFF7FF
:10553000C7FEFFF7BDFE1A48FFF78AFE0346042B9D
:105540000CBF01230023DBB21E4918460FF098FF61
:105550000346002B02D0FFF7B3FEDDE0FFF7B0FEFD
:10556000FFF7A6FE0E4BDA680D4B9B689A420CBF04
:1055700001230023DBB2144918460FF081FF0346D4
:10558000002B02D0FFF79CFEC6E0FFF799FE034B0D
:1055900006221A600023039336E000BF881900201A
:1055A0007808002054870108608701086C8701088B
:1055B000788701089C870108C0870108B880010826
:1055C000D4870108E0870108EC87010801AB4FF0A0
:1055D000FF32194652480DF0DBFA0290029B002B75
:1055E0000CBF01230023DBB24E4918460FF048FFE1
:1055F0000346002B40F09080019BDBB2184610F070
:105600001FF8039B01330393039B032BDED9464909
:1056100046480FF04DFF0346002B7DD1444B072237
:105620001A60039B42334FF0FF3219463C480DF09D
:1056300057F90290029B002B0CBF01230023DBB221
:10564000384918460FF01CFF0346002B64D101AB0C
:105650004FF0FF32194632480DF09AFA0290029B41
:10566000002B0CBF01230023DBB22E4918460FF09C
:1056700007FF0346002B4FD12D4B08221A60FFF77E
:1056800017FE2748FFF7F4FD0346042B0CBF012348
:105690000023DBB2274918460FF0F2FE0346002B29
:1056A00002D0FFF70DFE37E0FFF70AFEFFF700FE1E
:1056B0001B48FFF7CDFD0346002B0CBF0123002341
:1056C000DBB21D4918460FF0DBFE0346002B02D06B
:1056D000FFF7F6FD20E0FFF7F3FD114B1A68104BC2
:1056E0009B689A420CBF01230023DBB21349184682
:1056F0000FF0C6FE0346002B0ED1094B1A68084B6B
:10570000DB689A420CBF01230023DBB20C49184628
:105710000FF0B6FE0346002B05B05DF804FB00BF9A
:1057200078080020B88001080488010888820108F0
:1057300088190020608701086C87010878870108B4
:105740009C8701080000000000000000000000002D
:1057500008B50422024903480DF04AF808BD00BF0D
:10576000AC200020780800200000000000000000AD
:1057700008B502480DF074F808BD00BF7808002095
:1057800000B585B0864B01221A60FFF791FD854870
:10579000FFF76EFD0346042B0CBF01230023DBB291
:1057A000814918460FF06CFE0346002B02D0FFF72C
:1057B00087FDB3E1FFF784FD794B02221A60FFF702
:1057C0000FFD78480DF05CF8FFF712FDFFF770FD54
:1057D0007448FFF74DFD0346042B0CBF0123002343
:1057E000DBB2724918460FF04BFE0346002B02D085
:1057F000FFF766FD92E1FFF763FDFFF759FD69488A
:10580000FFF726FD0346002B0CBF01230023DBB26C
:10581000674918460FF034FE0346002B02D0FFF70D
:105820004FFD7BE1FFF74CFDFFF742FD5D4B1A6832
:105830005C4B9B689A420CBF01230023DBB25D499D
:1058400018460FF01DFE0346002B02D0FFF738FD6F
:1058500064E1FFF735FDFFF72BFD524B1A68514B02
:10586000DB689A420CBF01230023DBB25249184681
:105870000FF006FE0346002B02D0FFF721FD4DE19D
:10588000FFF71EFD4748FFF70BFD454B03221A604B
:10589000002303931BE0FFF7A3FC039B423319464D
:1058A00040480DF085F80290FFF7A2FC029B002B08
:1058B0000CBF01230023DBB2404918460FF0E0FD86
:1058C0000346002B40F02A81039B01330393039B83
:1058D000022BE0D9FFF784FC412132480DF010F98A
:1058E0000290FFF785FC029B002B0CBF01230023D5
:1058F000DBB2324918460FF0C3FD0346002B40F0DF
:105900000D81274B04221A60FFF7D2FC2548FFF7D0
:10591000AFFC0346002B0CBF01230023DBB2284958
:1059200018460FF0ADFD0346002B02D0FFF7C8FC70
:10593000F4E0FFF7C5FCFFF7BBFC1A48FFF788FC53
:105940000346042B0CBF01230023DBB21D4918467C
:105950000FF096FD0346002B02D0FFF7B1FCDDE00F
:10596000FFF7AEFCFFF7A4FC0E4BDA680D4B9B680B
:105970009A420CBF01230023DBB2134918460FF0F3
:105980007FFD0346002B02D0FFF79AFCC6E0FFF72D
:1059900097FC034B05221A600023039336E000BFF7
:1059A00088190020780800205487010860870108C2
:1059B0006C870108788701089C870108B880010876
:1059C000D4870108E0870108EC870108FFF708FC8D
:1059D00001AB194653480DF043F90290FFF708FC5C
:1059E000029B002B0CBF01230023DBB24E4918465B
:1059F0000FF046FD0346002B40F09080019BDBB288
:105A000018460FF01DFE039B01330393039B032BEA
:105A1000DCD9464946480FF04BFD0346002B7DD1AB
:105A2000444B06221A60039B42334FF0FF32194663
:105A30003C480CF055FF0290029B002B0CBF012349
:105A40000023DBB2384918460FF01AFD0346002B3D
:105A500064D101AB4FF0FF32194632480DF098F88F
:105A60000290029B002B0CBF01230023DBB22E49C6
:105A700018460FF005FD0346002B4FD12D4B072292
:105A80001A60FFF715FC2748FFF7F2FB0346042BCB
:105A90000CBF01230023DBB2274918460FF0F0FCAE
:105AA0000346002B02D0FFF70BFC37E0FFF708FCA2
:105AB000FFF7FEFB1B48FFF7CBFB0346002B0CBF99
:105AC00001230023DBB21D4918460FF0D9FC034621
:105AD000002B02D0FFF7F4FB20E0FFF7F1FB114BA6
:105AE0001A68104B9B689A420CBF01230023DBB25B
